:020000041000EA
:1000000000B5324B212058609868022188439860DF
:10001000D860186158612E4B002199600221596106
:100020000121F02299502B49196001219960352056
:1000300000F044F80222904214D00621196600F024
:1000400034F8196E01211966002018661A6600F04E
:100050002CF8196E196E196E052000F02FF8012189
:100060000842F9D1002199601B49196000215960AB
:100070001A491B48016001219960EB211966A021F2
:10008000196600F012F800219960164914480160C1
:100090000121996001BC002800D000471248134993
:1000A000086003C880F30888084703B5996A0420EC
:1000B0000142FBD001200142F8D103BD02B5186610
:1000C0001866FFF7F2FF186E186E02BD00000240BE
:1000D000000000180000070000035F00212200005C
:1000E000F4000018222000A00001001008ED00E03C
:1000F00000000000000000000000000074B24E7A12
:1001000000200420F7010010C3010010C5010010F9
:10011000C1010010C1010010C1010010C101001097
:10012000C1010010C1010010C1010010C701001081
:10013000C1010010C1010010C9010010CB01001065
:10014000CD010010CD010010CD010010CD01001037
:10015000CD010010CD010010CD010010CD01001027
:10016000CD010010CD010010CD010010CD01001017
:10017000CD010010CD010010CD010010CD01001007
:10018000CD010010CD010010CD010010CD010010F7
:10019000CD010010CD010010CD010010CD010010E7
:1001A000CD010010CD010010CD010010CD010010D7
:1001B000CD010010CD010010CD010010CD010010C7
:1001C00000BE00BE00BE00BE00BE00BEEFF3058054
:1001D000103800BEF2EB8871FC8F041024900410DC
:1001E0003402001090A31AE700201F49086006C8D7
:1001F00081F3088810471D48006800282FD10DA4FE
:100200000ECC002902D000F012F8F9E71849194A7B
:10021000002000E001C19142FCD1174988471749ED
:1002200088471749884700BEFDE701C901C29A42C5
:10023000FBD3704724900410C0000020E810002079
:100240004CA0041000000420000004204CA0041066
:10025000001004200010042000000000704709482E
:1002600000F052FE0047000008ED00E0000000D062
:100270000811002020D8002011B800100903001038
:1002800005B900105756000006005250ABB360533A
:100290002013011006005250861C03023013011077
:1002A000060052505422A29D3813011005005250EE
:1002B000DE65F4684CA00410F8B5C046064807494E
:1002C000091A8B10C90FC91810B5491003D0044B77
:1002D000002B00D0984710BDE8100020E810002047
:1002E00000000000054B10B5002B03D00449054861
:1002F00000E000BFFFF7E2FF10BDC04600000000B5
:10030000A4C600206801011010B50DF097FC07F09D
:10031000BDFC00280ED10121002007F0A7FCFA2027
:1003200001F096FE0021002007F0A0FCFA2001F069
:100330008FFEF0E702480DF075FC0120404210BD31
:100340006801011010B505F007FA10BDF8B50123DA
:100350000B72040005F034FA0500431C0BD1104B5E
:10036000186859680F4B22689860D96019002000FE
:1003700052699047F8BD01F057FFFA2206000F00BE
:1003800000232800002192000DF030FA802380190C
:1003900079411B069942E5D3012003494042E1E738
:1003A00010140110800F0020FFFFFF7F70B5094D72
:1003B00004002B78002B08D00123074920000B7282
:1003C0002368DB699847012070BD02F0D1FA012350
:1003D0002B70F1E714D80020980F002010B504000E
:1003E000036804499B6998472368200002491B6AF7
:1003F000984710BD800F0020980F00200020704704
:100400007047C04610B501F00FFF002905D0FA2251
:10041000002392000CF0BAFE10BDFA2189000CF006
:1004200077FEF9E783680830002B04D107E0180055
:100430001B68002B03D09942F9D1002003E0002370
:10044000016001200B6070478368002B08D08B424D
:1004500002D107E0994206D018001B68002BF9D1A1
:100460000020704708300B6803600120F9E7C046A0
:1004700043680430002B04D107E018001B68002BF0
:1004800003D09942F9D1002003E00023016001204C
:100490000B6070474368002B08D08B4202D107E005
:1004A000994206D018001B68002BF9D10020704734
:1004B00004300B6803600120F9E7C046F0B55746E9
:1004C000DE464646C0B53E4B82B05C681B68009372
:1004D000019483688246002B2CD0082353449B460A
:1004E00001F0A2FE53469B6804000D005F46002BFE
:1004F00020D000221E0094469846B268F36820007F
:100500002900801A9941002902DB14001D00BC4615
:1005100037003668002EF0D162464346002A48D0A4
:10052000116850460B6813604B68984753469B68A8
:10053000002BD5D153465C68002C29D000255646A7
:10054000237A002B31D02100636825723000984750
:100550002468002CF4D1B168B246002918D0009C60
:10056000019D0E0003E004000D00002E0ED03300AC
:1005700022009868D9682B00121A8B413668002B2C
:10058000F1DCF2D1002AEED1002EF0D100940195D9
:10059000009B019C5246180021001361546102B077
:1005A000E0BCBB46B246A846F0BD2468002CC7D1CB
:1005B000D1E7190053465C68002CBFD1CFE7C04695
:1005C00010140110024B18688007C00F7047C04616
:1005D00000C0064070B50F4C0F4D104A24184D4115
:1005E000A900A00F0843A90F69400D4B60400DF012
:1005F000FDF84A01C30E1343CA0E58405140094B3F
:10060000094A0DF0F3F84A00C30F1343CA0F5840CC
:10061000514070BD157C4A7FB979379EB9E5E41C1D
:100620006D4758BFBB49D094EB113113F0B5046846
:100630004568060023002A00C6468068F168034327
:100640000A4300B5134304D101F0EEFD03000B4350
:10065000FAD02A06230A6040270613432A0A3A439F
:10066000070CBC4669404B40984663460F041F4345
:10067000424003045A4043467B4032607360C20EDE
:100680004B011343C90E40010843B360A10FAB00F7
:100690000B43A20012196B41F060D901500E0843C0
:1006A000D201590E11430C0005004B0FC100194334
:1006B000E0000019694180BCB846F0BDF0B5DE46E7
:1006C00057464E464546E0B5BC4991B00891097879
:1006D000002900D1E5E00CAB9846B94BB94C029328
:1006E000B94BBA4E05931022059940460DF0DAF841
:1006F000B74B06931B78DBB2079301F095FDFFF72C
:1007000069FF0C9B4340089343465B684B40099349
:10071000B04B9B69DB0433D5AF4BDA6BE02313405E
:10072000402B2DD0EFF305839A46AC4B27689946B2
:1007300000239B463300564665689A4638002900D8
:10074000002E1AD001F0AEFDEFF3108272B64B46C8
:100750001B68002BFBD0BFF35F8F2368BB4212D016
:10076000BFF35F8F4B465946196082F310882768A4
:10077000656838002900002EE4D101F007FCE3E7AA
:100780000BF0DCF8CEE76368AB42E9D1914B150082
:10079000DF6901F049FD0A220023801859410B004E
:1007A00080215646020009068B4202D301228C4B5F
:1007B000524201200CC43268736892185B41384081
:1007C000104300240092019330607360BFF35F8F89
:1007D000824A146085F310880199FFF7FBFE4346B7
:1007E0009B68424658404346DB6890604B40D3606C
:1007F0007C4A029B94461B787B4ADB0063449868E2
:1008000090424CD00021FFF7E5FE089B43400C933B
:10081000099B4B40190043465960EFF3108572B6AF
:100820006E4A1368002BFCD0BFF35F8F069B079ABC
:100830001B78934214D005980C9A036841685A407B
:1008400043465B680C9242464B4053609268836813
:10085000C1685A404346DB684B4041468A60CB60E2
:100860004046FFF7E3FE102206000C0005984146C3
:100870000DF018F8069A13780133DBB21370BFF34A
:100880005F8F0022554B1A6085F3108830002100DD
:1008900011B0F0BCBB46B246A946A046F0BD9C6074
:1008A000B0E7524D524CAC4620686168514DA246AB
:1008B000A84600920193850D8F0286022F433400D3
:1008C0003D0024184D41A30E9946AB0101934B46C0
:1008D000019A1A43A30100930192009C019D241ADE
:1008E0008D412000644608CC290002930023A446D1
:1008F0000393029C039D00196941C445DBD1544612
:1009000020606160FFF766FE0CAB98460C9B43408D
:10091000029343465B680AA84B40059300F02CF90C
:100920000A980B99FFF756FE43469B68434006938F
:100930004346DB684B400793264B9B69DB0400D49E
:10094000F4E0254BDA6BE0231340402B00D1EDE0BF
:10095000EFF3058300249A46002340250093019479
:100960001E4B2E0099465546C346164C0023B046F2
:1009700027682E0065689A4638002900002E1AD094
:1009800001F090FCEFF3108272B64B461B68002B0F
:10099000FBD0BFF35F8F2368BB422DD0BFF35F8FC7
:1009A0004B465146196082F3108827686568380005
:1009B0002900002EE4D101F0E9FAE3E71AD800207B
:1009C0000FD8002080120020F8100020E81000202E
:1009D00010D800200000064000800040300100D008
:1009E000FFFFFF7F00000340FFFFFF00001C04200B
:1009F000F0100020002004206368AB42CED1350007
:100A000046469046009A019B1000190080185941F3
:100A10004B4BDA690123134003430093019101F02A
:100A200003FC0A220023801859410B008021020098
:100A300009068B4202D30122424B5242226063607C
:100A4000012E5ED10098019935003F4E4746306037
:100A50007160D846BFF35F8F3C4B994600234A46EE
:100A6000136087F31088FFF7B5FD029B43400C939A
:100A7000059B4B4019005B46596001F0D5FBFFF721
:100A8000A9FD069B434018005B469860079B4B40BE
:100A900019005B46D960EFF3108772B64B461B68AE
:100AA000002BFBD0BFF35F8F089B1B78002B31D14D
:100AB000274BDA681F2A3CD05A691F2A3AD0DA69D4
:100AC0001F2A39D05B6A03251F2B33D00AF036FF6B
:100AD000FF25FF231F4AED0013701F4B02929C4617
:100AE000052365446B604046FFF7A0FD1B4B1022B9
:100AF0001800414605930CF0D5FE0123089A1370A7
:100B00000CE0BFF35F8F00234A46136088F3108820
:100B1000013E2BE70F4B0293104B0593BFF35F8F02
:100B200000220A4B1A6087F31088DCE50AF006FF02
:100B30000EE70025EBB2CDE70225EBB2CAE7C046CF
:100B400000000640FFFFFF7FE8100020300100D0CA
:100B5000000003400FD8002008000340F8100020D8
:100B600010B5FFF7ABFD10BD10B5024800F0E0F87E
:100B700010BDC046A0D6002010B5082201490CF0D7
:100B800091FE10BDA0D6002030B54B1E012900D12A
:100B9000A7E0664A11780D092C0030349F2900D94E
:100BA000A2E00470012B00D1BEE00F211478214097
:100BB0000C003034092900D998E04470022B00D190
:100BC000B2E054782509290030319F2C00D990E0FB
:100BD0008170032B00D1A7E00F2121400C0030349D
:100BE000092900D987E0C470042B00D19CE09478D7
:100BF0002509290030319F2C00D97FE00171052B98
:100C000000D191E00F2121400C003034092900D996
:100C100076E04471062B00D186E0D47825092900BE
:100C200030319F2C00D96EE08171072B00D17BE021
:100C30000F2121400C003034092966D8C471082BDB
:100C400000D171E014792509290030319F2C5FD83B
:100C50000172092B68D00F2121400C003034092982
:100C600058D844720A2B5FD05479250929003031B5
:100C70009F2C52D881720B2B56D00F2121400C0093
:100C8000303409294BD8C4720C2B4DD094792509E6
:100C9000290030319F2C00D9073101730D2B43D02F
:100CA0000F2121400C003034092901D937310C00C3
:100CB00044730E2B38D0D1790C09220030329F2991
:100CC00000D9073282730F2B2ED00F220A40110059
:100CD0003731092A01D830321100C173102B23D0CB
:100CE00010300023037030BD07345AE737310C0051
:100CF00063E707316CE737310C0074E707317DE7B4
:100D000037310C0085E707318EE737310C0095E766
:100D100007319DE737310C00A3E70731AAE73731E8
:100D20000C00C4720C2BB1D1C018DAE7A0D6002099
:100D300010B588B004000D22002168460CF0ACFD0F
:100D40000D22002104A80CF0A7FD4B236A4668463B
:100D5000137004A90D220FF08FF91521082220002D
:100D600069440CF09FFD08B010BDC046EFF3108041
:100D700072B6034A1368002BFCD0BFF35F8F704735
:100D80002C0100D0BFF35F8F0022024B1A6080F36A
:100D9000108870472C0100D070B5EFF3108C72B63C
:100DA0000D4D2B68002BFCD0BFF35F8F0724CB08C1
:100DB000C618C05C01230C40A3401C000440034241
:100DC00007D118433070BFF35F8F2C608CF310880D
:100DD00070BD10000AF09AFD2C0100D0F8B547460E
:100DE000CE46884680B5EFF3108C72B6214D2C6844
:100DF000002CFCD0BFF35F8F9A422CD8D408072771
:100E0000055D061901241740BC402C421FD0072164
:100E10000127894609E0D408055D06194C463900CA
:100E20001440A1400C00294211D001329342F2D269
:100E300001204042BFF35F8F00220E4B1A608CF3FB
:100E4000108800280FDBC0BCB946B046F8BD25436A
:100E500010003570EEE7BFF35F8F00232B608CF33B
:100E60001088012040424346002BECD008980AF03D
:100E70004DFDC0462C0100D030B5EFF3108C72B69A
:100E80000A4C2368002BFCD0BFF35F8F072301229D
:100E90000B409A40CD08435D93434355BFF35F8FAA
:100EA000002323608CF3108830BDC0462C0100D095
:100EB0000021044B044ABFF35F8F02C39342FAD16F
:100EC0007047C046000100D0800100D0044A10786D
:100ED000431CDBB2172B00D9102313707047C04698
:100EE000A80F002010B5064B064C82B001000093FD
:100EF00018221F232000FFF771FF02B010BDC0466B
:100F00007C0101100C1A0020142310B50100188870
:100F100004331B88984710BD162310B501001888AC
:100F200002331B88984710BDF8B54746CE4680B5BA
:100F30000F1E19D0142399460433040000250126FE
:100F400098464B461888434621681B88984701C439
:100F5000431E9841013540420640AF42F1D1300076
:100F6000C0BCB946B046F8BD0126F8E710B50C2064
:100F700082B001F093FCFFF725FB002810D08B4BCB
:100F80008B488B498B4A186059609860D96018610A
:100F900059619861D961186259625A6202B010BDF4
:100FA000854CA06701F0D0FC0122844B1A60636C71
:100FB000012BFCD10322824B1A607F4A936B012BD9
:100FC000FCD1013301217F4A7F480093043301F0B3
:100FD00013FC05237D4A009301217D4801F00CFCA0
:100FE0007C4B5A68FF2A02D8802252005A60802225
:100FF000734B6E4C12011A602169002907D0606999
:101000000CF086F8013043001B18033BFDD2E022B0
:10101000704B714819680A400260022219685140F9
:1010200001320A40042102609A681142FCD08021FA
:101030006A4A09011160802252005A60684B23619C
:10104000684B5968FF2900D85A60032201215B4B85
:101050001A60644A93681942FCD0E0231068034088
:1010600061480360126803234A40022113405D4A2D
:10107000036093681942FCD080215C4B0901196020
:1010800080215B4B4900516063615A4B5A68FF2ACB
:1010900000D859608022584B12011A60E16900297A
:1010A00007D060690CF034F8013043001B18033B93
:1010B000FDD2E0234F4A11680B4050490B6080215C
:1010C0004F4B090119608021394B49005160E361A0
:1010D0004C4B5A68FF2A00D8596080224A4B1201B3
:1010E0001A60216A002907D060690CF011F80130FC
:1010F00043001B18033BFDD2E023424A11680B401A
:1011000042490B608021424B0901196080235B003A
:1011100053608022264BD20223623E4B5968914293
:1011200000D25A6080223C4B12011A60616A002989
:1011300007D060690BF0ECFF013043001B18033B44
:10114000FDD2E023334A11680B4034490B60802103
:10115000334B090119608023DB025360154B636236
:10116000304B5A68FF2A02D8802252005A608022EF
:101170002D4B12011A60A169002907D060690BF09C
:10118000C7FF013043001B18033BFDD2E023254A73
:1011900011680B4025490B608021254B090119601E
:1011A00080235B005360124BA361F7E60811002017
:1011B000006CDC021BB70000008000403CB0004027
:1011C00030B00040002F685900800240008C8647F4
:1011D00000C00240308000403090004030A000400D
:1011E000001BB7003C8000403C9000403CA0004009
:1011F000405973075480004054B000405490004060
:1012000054A000406080004060B00040609000400A
:1012100060A000406C8000406CB000406C900040CA
:101220006CA000404880004048B00040489000401A
:1012300048A00040014B8000C058704708110020B2
:10124000094A10B594464024830063441A68C000DC
:101250006240803414408022520113431C60034BCF
:101260009C466044416010BD04C001400040014004
:10127000074B80009C4660440368C90092000A4303
:101280005A400C231A4080235B0103431A607047C5
:1012900004C00140084B80009C466044002905D0F2
:1012A000802302229B0103431A607047C02302225D
:1012B0009B0103431A60F8E704C00140D0231B06DA
:1012C0001B6830B50500584243412F205B428343E1
:1012D0000D48EC088446072028408000814020000B
:1012E0000A4D3C3063448000A40041511B19002A80
:1012F00004D0802292011343196030BDC0229201B4
:1013000013431960F9E7C0463041014000400140F5
:10131000D023F0B5C6461B0698461B680C4F9B00B1
:101320001600FA5804000D0000B5104209D129003A
:1013300014430D203200FC5000F09CF880BCB846ED
:10134000F0BD0AF0FBFA43461B689B00FA58EEE733
:1013500090D6002010B504000D2000F085F9D023B0
:101360001B061B6802499B005A58A2435A5010BDE5
:1013700090D600200123D02283401206936293610D
:10138000094A40219446830063441A68C0004A40D9
:10139000803111408022520113431960034B9C4657
:1013A000052360444360704704C001400040014091
:1013B00001238340002904D0034A1360034A1360C9
:1013C0007047034A1360FBE780E200E000E100E0C1
:1013D00080E100E001238340014A13607047C0466A
:1013E00000E200E0084B10309B688000C358002BDF
:1013F00007D0064A00209B1A2F229A424041C0B2D1
:1014000070470020FCE7C04600ED00E0AC0F002074
:10141000024B10309B688000C058704700ED00E020
:1014200070B50D00EFF3108672B60F4A1368002BEB
:10143000FCD0BFF35F8F0D4B10309B6884001B59AD
:101440000B4A934203D09D4201D00AF077FA074B32
:101450009B681D51BFF35F8FBFF35F8F0022024B6C
:101460001A6086F3108870BD240100D000ED00E002
:10147000CD010010F0B557464E46DE464546E0B574
:1014800085B0060000911700EFF3108B72B66A4A20
:101490001368002BFCD0BFF35F8F0025674B5D57AF
:1014A0009A46002D00DAA9E06B00654C01935B19A8
:1014B0009B009846A146C1444B4652469B79103644
:1014C0001370604BB6009B6899590B1B2F2B33D9B7
:1014D0005D4B994200D0ACE0019B42469C465B4B81
:1014E0006544AD0063535A4B0232A218043B9B1A69
:1014F0001B05584A5B0D651913436B80564B012140
:10150000AB80FF23AB71009BEF71AB604B460B438D
:1015100019004C4B9B689951BFF35F8FBFF35F8FEE
:101520000022454B1A608BF3108805B0F0BCBB4617
:10153000B246A946A046F0BD01200A008243D379F5
:101540008C46BB4231D84546130044491B1B5B41C6
:101550005943090D3D4B63533D4B02356519043B1F
:101560005B1B1B053B4D5B0D2B43AA464D466B8019
:101570000425AC465546E044131F44441B1B1B0581
:101580005B0D1D434B46997100999D8099604946BA
:10159000DF71334B01431360BBE75800C018800074
:1015A0002018C179B9422FD902000623D356002B47
:1015B000F3DA02932B4B61460393131D9A460423DF
:1015C0005B429C46E14450464B461B1A1B055B0D93
:1015D0009C46204B95719846634640460343938052
:1015E000019B5A199200039BA418A380029B1C4ADA
:1015F000A371009B2260E771A3608AE70AF09EF95D
:10160000002553465D574FE7908802934005131D10
:101610009A46031561469C464046D44463460430CE
:101620002018181AE0230005400D1B0218430390F0
:10163000C5E70AF083F94FE7240100D015D8002050
:10164000AC0F002000ED00E0CD01001000A1FFFF75
:10165000DC0F002000E0FFFF01BDFFFFAAAA000091
:101660000148804701BD0000F0B5DE4657464E46B2
:101670004546E0B50C0083B0EFF3108872B65D4AC2
:101680001368002BFCD0BFF35F8F5B4B5B499A68FC
:10169000030010339F00D5598D4239D0A5424AD05E
:1016A000574EAA1B2F2A33D80122924682409146D8
:1016B0004846544A1268104001904846524A106009
:1016C000BFF35F8FEFF305829346002A35D0934234
:1016D00001D00AF033F92A0053469A4390688442B5
:1016E00008D175E04B005B189B00F3189868A04286
:1016F00034D01A00062151560029F3DA844253D01F
:10170000019B002B26D04A46404B1A603D4B1A6085
:10171000394B9B68DD51BFF35F8FBFF35F8F0022B2
:10172000344B1A6088F3108803B0F0BCBB46B24655
:10173000A946A046F0BD0D00EAE72A0053469A43A9
:1017400090688442D6D1062010561300002809DA8A
:101750000D0031E04A462C4B1A60D9E70620185696
:10176000002822DB42001118890074188A46A168FB
:101770009960E179D971062161569971002925DBBB
:10178000A488F11A6405241554440919E0240905B4
:10179000490D24022143998013181D4A9B0011789A
:1017A000F31899711070ABE713005946002914D152
:1017B000FF3191711749918015490A789A71164A3B
:1017C0009B1B5B415A43120D0A7099E71349E2E7EC
:1017D0000620105613000028C4DA114A1149D21A03
:1017E000083A5002400D014399800F4952080A43BC
:1017F000DA8085E7240100D000ED00E0CD01001083
:10180000AC0F002000E100E080E100E080E200E0B9
:1018100015D8002001BDFFFFAAAA000001BD0000ED
:10182000E60F002000F0FFFF00F8FFFF032310B5D4
:101830000400074A18409446C0009C43FC33834090
:101840006444226881409A4313000B43236010BD17
:1018500000E400E070B5EFF3058101240443EFF3E9
:10186000108C72B6214A1368002BFCD0BFF35F8F37
:101870001F4B05001F4AED1A6D416A43120D1E4DA4
:101880008900AE6852B27658A6421CD0062159563D
:1018900091421CD012215956914222D01E215956F4
:1018A000914220D02A2159560324914210D0134B43
:1018B00019781A708171BFF35F8F00220B4B1A6089
:1018C0008CF3108870BDAB680D4C5C50EFE70024C2
:1018D0006100091989005B18FF21997109499980F4
:1018E000E5E70124F4E70224F2E7C046240100D032
:1018F000AC0F0020AAAA000000ED00E015D80020DF
:10190000CD01001001BDFFFF054B064A1360064ADA
:10191000136053609360D3601361536193617047A8
:101920008080808000E400E004E400E01F2110B526
:10193000091A0248FFF7A0FA10BDC0461FD80020C0
:1019400010B5084B084C82B001000093002205231B
:101950002000FFF743FA002801DB1F23181A02B00A
:1019600010BDC046980101101FD8002070B50400BA
:101970000E001500FFF7AAFA0100200000F006F89B
:10198000A680E580BFF35F8F70BDC046024B9C46CA
:1019900061448900016070474000003410B50400C4
:1019A000FFF794FA01002000FFF7F0FFFF232371F7
:1019B000BFF35F8F10BDC04610B50400FFF786FA75
:1019C00001002000FFF7E2FFFF23A380BFF35F8F3A
:1019D00010BDC04610B504000120FFF783FA034B89
:1019E000C3189B002360BFF35F8F10BD400000341D
:1019F000034B9C46614489000160BFF35F8F7047D1
:101A00004000003483680B4810B58446614462444A
:101A10001201090159189B185C684A680120944218
:101A200001D802D00020C0B210BD1A680B689A42DB
:101A3000F9D8F7E7FFFFFF0F0A4B1968EFF31080A3
:101A400072B60A68002AFCD0BFF35F8F1B68BFF331
:101A50005F8F00221A6080F3108840BF00200021B1
:101A60007047C046ACD70020F8B5574645464E46AD
:101A7000DE46E0B598460CAB1C780DAB1B78070032
:101A800091469A460568002C59D1AC7B002C3BD07E
:101A9000660029683619033E89194B78AB73002B11
:101AA00000D1EB7300238B704B700B702D4BE21841
:101AB000BB6812019B184A461A6042465A600A9A4D
:101AC0009A600B9ADA6000238B704B700B706B7B03
:101AD0009B46002B26D022006B685946A868984781
:101AE0005B465B005B442A68033B002812D05846E3
:101AF0009619B070D118D35C002B00D073705B4680
:101B00000C706B735C450ED0F0BCBB46B246A94668
:101B1000A046F8BDD3189C709119925D002A1CD183
:101B20005B460B706C734A464346387D00F010FCF0
:101B3000051E0AD10E9B002BE6D01D70E4E766005F
:101B400029683619033E8919B0E75346002BF1D1B5
:101B50002100386800F014FEECE75A705B460B7009
:101B60006C73E0E7FFFFFF0FF0B5DE4657464E46C9
:101B700045460023E0B58BB00893684B8200D458EB
:101B800000239B46099000F04FFB02000B006068A9
:101B9000EFF3108A72B6564601680029FCD0B246AF
:101BA000BFF35F8F21684F7B8C46002F2ED0A56836
:101BB0005B49A9467918090189444946086849687A
:101BC00005000E00AD1A9E41002E5FDD02000B00E5
:101BD000099800F0BDFB00230022994600230692DD
:101BE0000793002398466368BFF35F8F5A461A60D5
:101BF0008AF310884346002B12D10028C3D10BB0C2
:101C0000F0BCBB46B246A946A046F0BD0023002268
:101C10009946002306920793002300209846E2E7A6
:101C2000089B494618023843C047626805000E0009
:101C3000EFF3108A72B61368002BFCD0BFF35F8FEE
:101C4000002E41DB2B00334302D02369002B56D1F9
:101C50002368D97B002905D01A684800411852181A
:101C6000033A57709A7B002A00D19F73DF73E268B2
:101C7000013FD35D0133D3555B4623616368BFF3F6
:101C80005F8F5A461A608AF310887CE7002E02D1D3
:101C9000002D00D09AE70021604600F0EFFC4B4693
:101CA0001A685B68069207934B469B6898464B46BA
:101CB000DB689946E368DB19013B1B7808931B023C
:101CC0000343236100208EE72369002BC0D0069ACE
:101CD000079B8021521BB34109068B4202D301228C
:101CE000104B524200210491013103914946019168
:101CF0004146200002970091FFF7B6FEBCE700F0D6
:101D000093FA2A00330012184B41802109068B42B6
:101D1000E8D30122034B5242E4E7C046C4C6002088
:101D2000FFFFFF0FFFFFFF7F10B5144C6368002B10
:101D300004D00A211248FFF729FE10BD2300114AE2
:101D40001021206800F0B6FB032000F061FA0320A8
:101D500000F066FB03200C4900F0B4FAFFF7B6F878
:101D60000A4B9C4603232375D0231B061B68604443
:101D70006375074B80006060DC60DAE7F40F0020D9
:101D8000ACD70020051A0010691B00104000003479
:101D9000C4C6002000487047F40F0020F0B5574635
:101DA0004E464546DE46E0B585B0019310AB1B7844
:101DB0000600039300239A46984600927268EFF358
:101DC000108B72B61368002BFCD0BFF35F8F3568A1
:101DD000AC7B002C00D16EE067002B683F19033FFD
:101DE000DB195A78AA73002A00D1EA73484AA1186D
:101DF000B2680901521800980199106051600E995B
:101E000091600F99D16042469A705A701A706B7B3C
:101E10009946002B00D16BE022006B684946A86808
:101E200098474B465B004B442A68033B002856D03A
:101E30004846D719B870D118D35C002B00D07B70FE
:101E40004B460C706B734C4553D0F3681B19013B28
:101E500018787368BFF35F8F42461A608BF310885F
:101E60005346002B08D10002204305B0F0BCBB460E
:101E7000B246A946A046F0BD039B002B46D00E9B60
:101E800000200F99984703000B433FD004000D1E1C
:101E90001ADA009A019B121BAB4100920193802237
:101EA0001206934204D301231A4C5B42009301941F
:101EB000039B9A4682E77368BFF35F8F1C608BF3C6
:101EC000108801204042D0E700F0AEF980220019CE
:101ED00069411206009001919142E9D3E3E7D318DA
:101EE0009C70D119D25D002A00D05A704B460B70FD
:101EF0006C73307D009A019B00F02AFA824600281C
:101F0000A3D02100306800F03BFC9EE70020ACE746
:101F1000FFFFFF0FFFFFFF7FF8B5040000292FD060
:101F20004268EFF3108572B61368002BFCD0BFF344
:101F30005F8FFF222068CFB2437B0A40BB4213D0A1
:101F400003685600B6189B19033B9B78002B0BD1F6
:101F50002269914216D000206368BFF35F8F002290
:101F60001A6085F310880CE0E6680B0AB218013A93
:101F70001278DBB29A42EED1390000F001FCEBE7B7
:101F80000020F8BD2361E6E7407D7047F0B504000E
:101F90000D0006267642F717C64636196F4100B582
:101FA00084B08F4214D811D000F03EF932003B00CB
:101FB000121A8B41002B15DC002B3ED0200029008B
:101FC00000F070F904B080BCB846F0BD8642EBD991
:101FD0000026002700F028F932003B00121A8B413E
:101FE000002BE9DD002302930193154B320000938F
:101FF00014483B00FFF7D2FE0028DFDB00239846A1
:10200000BC46114A114F7B6A9C4504D8B96A8E427E
:10201000D4D99C45D2D11168EFF3108072B60B6809
:10202000002BFCD0BFF35F8F1368BFF35F8F414677
:10203000196080F3108820BFE5E7002ABED0D1E701
:10204000391A0010F40F0020ACD7002000400540E2
:1020500070B5060000F0E8F8FA2204000D00002335
:102060003000002192000BF0C1FB80230019694170
:102070001B06994202D3012002494042FFF786FF26
:1020800070BDC046FFFFFF7FF0B5EFF30583CE467E
:10209000474680B505000C0085B0002B12D02A4AB7
:1020A0000020536AA34203D3926A0130AA4204D3A8
:1020B00005B0C0BCB946B046F0BD1B1B5A1E9341CB
:1020C000D8B2F5E7214E02930193214B0200009311
:1020D00030000B00FFF762FE031EE0DD20BF7168D9
:1020E000EFF3108772B60A68002AFCD0BFF35F8F47
:1020F000DAB29446FF2230681A40417B61450FD026
:102100000168894651008846494690444144033954
:102110008978002904D13269934209D1316107E0FD
:10212000F1681B0A8A18013A1278DBB29A4207D08A
:102130007368BFF35F8F00221A6087F31088AEE7E1
:10214000614600F01DFBF3E700400540F40F00205E
:10215000391A0010F0B5EFF30582D6464F464646D1
:102160001000C0B51038EFF3108872B6214C236808
:10217000002BFCD0BFF35F8F0123190081401E4D5F
:102180001F006963AA461D4D29601D4D2E78AC467F
:102190003500C5402F402B4215D053465F6A194B7E
:1021A0008500EB589F4218D36246174B8E43EB587D
:1021B0001670BFF35F8F0022226088F31088002B17
:1021C00006D0984704E0BFF35F8F276088F310883C
:1021D000E0BCBA46B146A846F0BD0C4B92009C4606
:1021E000624413681360BFF35F8F0023236088F39A
:1021F0001088EDE7280100D0004005403C70054004
:102200001ED80020B8D70020D4170020D03F0540AA
:1022100010B5034B01001800024AFEF7BDFD10BDCA
:1022200011D80020B4010110034B596A0A00986AC2
:10223000596A8A42FAD170470040054070B50400DF
:102240000D00174A536A1900966A536A8B42FAD1F5
:102250003000190024184D41AB4216D813D0104B52
:102260002A005B6A9D4203D90D494B6A9342FCD315
:10227000934207D10A4A02E0516A994202D1916A17
:10228000A142F9D370BDA642E9D9054B5B6A1C0097
:102290005A1CEFD0012201246442E5175242E3E7C1
:1022A00000400540064A536A9942FCD807D1044BC6
:1022B00002E05A6A914202D19A6A8242F9D3704787
:1022C0000040054070B504000D00EFF3108672B6B3
:1022D0001A4A1368002BFCD0BFF35F8F002D1BD070
:1022E0002000FFF795F8164981420AD02000FFF739
:1022F00097F801212000FFF75BF80123A340114A62
:102300001360114BA400E550BFF35F8F00220B4B0D
:102310001A6086F3108870BD0121A1400A4BA2000B
:10232000D5500A4B20001A788A4305491A70FFF7E6
:102330009BF900212000FFF73BF8E5E7280100D0DA
:102340005521001038600540D41700201ED8002009
:10235000F0B54F46D6464646C0B507002B4C616ADD
:102360000D00A66A616AA942FAD18B4208D805D04D
:102370000120E0BCBA46B146A846F0BDB242F7D94A
:10238000EFF3108A72B6224801680029FCD0BFF32F
:102390005F8F0125BD401F491C4C8846097889463E
:1023A0002943C9B28C46414660460870391D8900F0
:1023B00065630A511849B8004350216A0020294238
:1023C00019D0616A0800A66A616A8142FAD18B421B
:1023D00019D801D1B24216D8CC450BD00B4B1F22D5
:1023E0001D625D6301233A4093400C4A13604346EB
:1023F0004A461A700120BFF35F8F0022044B1A6017
:102400008AF31088B5E70020F5E7C0460040054094
:10241000280100D01ED80020B8D7002080E200E0BC
:10242000EFF3108C72B60A490B68002BFCD0BFF397
:102430005F8F01238340074A0748136202789A435B
:102440000270BFF35F8F00230B608CF3108870471E
:10245000280100D0004005401ED8002070B50600BD
:102460000D00140000291DD0002A12D07368806866
:10247000984762006B0012195B193168033A033BFD
:10248000002808D08A189570C818CB5C002B0BD197
:102490000470280070BDCB189C7088188A5C002AD4
:1024A00005D105702000F5E753700470F1E75A700C
:1024B0000570F7E710B583600023CCB24373013396
:1024C000426004738373C4730068421C012C05D9F5
:1024D0000133DBB2137003329C42F9D1FF230B406E
:1024E0005A00D318C01800230338437010BDC046EB
:1024F00070B505000C1E07D0630001681B19033B73
:10250000CB185A78002A01D1200070BD50008018E5
:102510000338091800204E784870210058702800B0
:10252000FFF79CFF310004002800FFF7E1FF0600E1
:10253000002C20D00028E7D0320021006B68A8686A
:1025400098477200630092191B192968033A033BEC
:10255000002808D08A189470C818CB5C002B00D0D3
:1025600053700670D0E7CB189E7088188A5C002ADA
:1025700000D05A7004703400C6E7C046F0B5574624
:102580004546DE464E46E0B50D006F0001687F19F6
:10259000033F0400C85D83B00192CA19002850D0DF
:1025A00043001B18033BCB185E78B446002E1AD1AB
:1025B000019E002E42D0E67B002E04D073009B19B2
:1025C000CB18033B5D70A37B002B00D1A573E57393
:1025D00000282FD10023537003B0F0BCBB46B24695
:1025E000A946A046F0BD72006244033A8A185178A9
:1025F0008846002151708946597032000100200040
:10260000FFF72CFF43468246002B07D05B00216872
:102610004344033BCB185A78002A16D14246514610
:102620002000FFF71BFF2168019BCA19002BC2D1B4
:102630000028CFD043001B18033BCB180021997012
:10264000C8E7019B002BB6D1C4E7500080180338BF
:10265000091848788346484648705870414620001B
:10266000FFF7FCFE594680462000FFF741FF414638
:1026700002002000FFF7F2FE8046CFE7F0B5574694
:102680004546DE464E46E0B583B00191457B0400E9
:102690006F0000687F19033FC15DC219002952D045
:1026A0004B005B18033BC3185E78B446002E1CD168
:1026B000019E002E44D0E67B002E04D073009B19AF
:1026C000C318033B5D70A37B002B00D1A573E5739A
:1026D000002931D1002328005370617303B0F0BC8E
:1026E000BB46B246A946A046F0BD72006244033A1A
:1026F0008218507880460020507081465870320011
:102700002000FFF7ABFE43468246002B07D05B005C
:1027100021684344033BCB185A78002A17D142461C
:1027200051462000FFF79AFE019B01002068C21964
:10273000002BC0D10029CDD04B005B18033BC31840
:1027400000209870C6E7019B002BB4D1C2E750006F
:1027500080180338091848788346484648705870EE
:1027600041462000FFF77AFE594680462000FFF7D9
:10277000BFFE414602002000FFF770FE8046CEE714
:1027800070B5050000292CD0437B8B422ED04C0025
:1027900000686418033C0419A278002A21D0530071
:1027A0009B18033BC25CC6188A4202D11BE0002A78
:1027B00008D053009B18033BC3185A788A42F6D1BD
:1027C00062785A70002301222800A3706370FFF71B
:1027D000D5FE697B02002800FFF740FE68730120E8
:1027E00000E0002070BD63783370EBE70122190030
:1027F000FFF7C4FEF2E7C046F8B5040022481E0009
:1028000017000D000AF084FC010038000AF080FC7B
:10281000069B36041B031E432368002B22DB1B4B45
:102820001B49E3185A1E93418022920194465B4251
:102830001B0B184A1B0363441360174A13601F00E5
:102840008A689743FBD1C022231D92011A4321239A
:102850002560A06013602368002BFCDA0823E66083
:102860001360F8BD3F2322681340AB42D7D1A36861
:102870001B051B0D8342D2D1EE22E368D202134026
:10288000B342CCD1EDE7C046001BB7000040FDBF0E
:1028900000C0004000E0004000F000408023024AF9
:1028A0009B000343D36270470080054010B580242D
:1028B0001C4BE4051C6000281AD001231A4C184355
:1028C0001A4BDC611A4C44401C62596298628021A8
:1028D000144BC9051960174817490860E021C9045D
:1028E0001960002A07D18022144B12061A6010BD0D
:1028F0000E4BD861EBE753019B1A9B009A1880237B
:1029000012015B049A4209D213000D490B60074B78
:102910005A608022094BD2051A60E8E7094B1A0079
:10292000F3E7C04600B00540D3C007B000800540C3
:102930002D3FF84FFCFF01000820014000A005409A
:10294000142D0020FFFFFF00AA23064A1B0113607D
:102950002F230549D360054B19605368002BFCDA1F
:102960007047C0460040024000B0FA0000600240DC
:1029700010B501F0C5F900F01DFB00F0E5FC00F01A
:1029800085FD02F031FF01F049FA00F085F902F00F
:102990009DFE10BD40BA80B27047C04600BA704775
:1029A000F0B5C646584D04002B68884600B5002B8C
:1029B00003D02A7A824200D17CE0544E2701EB6892
:1029C000002B02D02A7DA2426AD0AB69002B03D033
:1029D0002022AA5CA24259D06B6A002B03D02C2281
:1029E000AA5CA2422CD03B191B01F318DB7B002C04
:1029F00035D0B27A022A68D0012C35D08D2252000F
:102A0000B25C022A00D172E0022C31D0404AB25CA2
:102A1000022A00D172E0032C2AD1032B0DD83D4DA0
:102A20009B00585903F0AAF800223F193F01F719FB
:102A3000FB7B9B005A510423FB7380BCB846F0BD5E
:102A40003819000110304146AA6A3018984700230F
:102A50006B623B191B01F318DB7B002CC9D18D2263
:102A60005200B25C022A3BD0294AB25C022A32D020
:102A7000294AB25C022AD0D1284AB25C9A42CCD10F
:102A800004223B191B01F318DA73D6E73819000149
:102A900010304146EA69301898470023AB619BE744
:102AA00038190001103041462A6930189847002330
:102AB000EB608AE707013818144E000110306A688D
:102AC0003018984700232B6079E7F27B9A42D7D0E1
:102AD000012C93D1C8E7124AB25C9A42C8D1CFE721
:102AE0002022FF32B25C9A4200D08FE7C8E7202252
:102AF000FF32B25C9A4200D086E7C1E7084AB25C76
:102B00009A4200D087E7BBE770240020A824002069
:102B10002A020000602400203A0300003F03000066
:102B20002F020000564BF0B54546DE4657464E464E
:102B300098460301E0B59B461D1843462D015E19DA
:102B4000F37A070089B0012B00D996E04D4A9B002B
:102B5000D4580192002C00D185E01035454428005E
:102B60000DF04AFAA022123081B29200362000F015
:102B7000D3FD8146002869D005AC0C22002120003D
:102B80000AF08AFE3089FFF705FF01232080A37039
:102B90000C22FF3321004846A38000F0E1FF3A4BAE
:102BA0000C269A464346013D029703936A786F1CB0
:102BB0003B0000242E2A07D15AE05A780134E4B2AF
:102BC000591C2E2A49D00B00002AF6D1DA1B92B2EA
:102BD00090461D002200B218524534DC220031001C
:102BE000484601F05FF8731C9BB2A41942463900B5
:102BF000484600F0F1FFA4B22B78661CB6B2002B59
:102C0000D4D1039B0022310048469846029F01F030
:102C100049F81E4B02340422049304A9A3B2484687
:102C200000F0DAFF3B0001995B448C461B014344F2
:102C3000DA7ADB7B16499B009200585862443523B0
:102C4000494602F029FF484600F06AFE09B0F0BC90
:102C5000BB46B246A946A046F0BD5B1B9BB2984658
:102C600022000D00B7E70021FFF79AFEB472EDE7EE
:102C700000233D0000229846ADE7064808F046FED6
:102C8000A8240020A0240020FEFF00000001000175
:102C900060240020D80101107047C046012800D9E7
:102CA0007047054B8000002902D00A68C250F7E740
:102CB000024A1268C250F3E7A0240020D416011083
:102CC000F8B5DE4657464E4645460223E0B5474E28
:102CD000002534009B460027A37A022B39D030D838
:102CE000002B22D08D235B009846414B9946414BE7
:102CF0009A46FDF735FFB37A80B2022B41D04346A6
:102D0000F35C022B44D04B46F35C022B49D0534674
:102D1000F35C022B4ED05B46A37201232081E77245
:102D2000280023736773FFF7FDFE01351134EDB200
:102D3000FF34042DD0D1F0BCBB46B246A946A04614
:102D4000F8BD032B4FD12368002B13D10023A372AE
:102D5000EBE7237B013BDBB22373002BE5D1637BE5
:102D60000133DBB26373042B2AD023732800FFF7EF
:102D7000D9FEDAE7013B2360002BD6D10023A372F2
:102D8000D3E733898342B4D04346F35C022BBAD1F4
:102D90001733FF33F35A8342ABD04B46F35C022B1D
:102DA000B5D18A239B00F35A8342A2D05346F35CE9
:102DB000022BB0D1CE239B00F35A8342ABD198E7CC
:102DC000E37A002B08D10C4A5268002A04D0012271
:102DD0006373E2722273C9E700212800FFF7E0FD68
:102DE0000023A372A1E7054808F090FDA824002065
:102DF0002A0200003A030000A02400200C02011067
:102E00000123F0B51E0000250640184205D0002918
:102E100053DD057801392D020130032213000340F0
:102E2000104251D1072957DD072208390F0091437D
:102E30000A00010004000831891822689A189A4291
:102E40009B415B42D21863680834D3189342924185
:102E500052429B18A142F0D1F9084A1CD2008018B6
:102E6000C9001A04791A120C1B0C9B18012910DDD9
:102E700002889B188A1E012A05DD44881B19052932
:102E800001DD81885B1851084C1C64004900001961
:102E9000511A012904D10278FE318D431543ADB298
:102EA000ED182B0C2D042D0C5B19180C1B041B0C9E
:102EB000C018002E02D180B2F0BD0020030600042D
:102EC0001B0C000E1843F6E7012903DD03880239C5
:102ED0000230A7E70023DCE71A00C5E7F8B557463C
:102EE0004E46DE464546E0B591460A9A8A46116846
:102EF0001B680A04120C090C52181904090C521808
:102F00001B0C9B181A0C1B041B0CD3181F0C1B0446
:102F10001B0C0400FF18002825D000239B46FF331C
:102F200001269846658960682900FFF769FFC01986
:102F3000070C0004000C3F182E4209D05B464146A6
:102F400073403A069B463B0A120C0B401A4317008B
:102F50002468002CE6D15B46002B04D03A063F04DF
:102F6000120C3F0E17435046FFF714FD040048466D
:102F7000FFF710FD2318DB191A0C1B041B0CD318C8
:102F8000180C1B041B0CC018C04380B2F0BCBB461D
:102F9000B246A946A046F8BD10B582B0049C009484
:102FA000FFF79CFF02B010BD10B5FFF729FFC0432B
:102FB00080B210BD0322094BFA219343084A09014C
:102FC000136000221A71074A581810600122196014
:102FD0000271054A5A50054A13607047DFC6002047
:102FE000D4C60020D8C60020A00FA00F102D0020AE
:102FF000F0B5D6464F464646C0B500285DD083079B
:1030000000D079E003003E4A083B12689A4200D99A
:103010006CE03C490C300C68844267D31979002974
:1030200067D0FA2019885E88000181420BD8864259
:1030300009D8981A80B2804690198246B04505D0CA
:103040000088404502D0304808F060FC50188442A7
:1030500038D045884545F6D100251D712B4DAC462D
:103060002D689D4202D965462B601D009C4232D9D5
:10307000834212D00779002F0FD184420DD0A8428D
:1030800030D00188FA2019800001814205D04446E1
:10309000501844805E889019824653450DD05046A2
:1030A0000079002809D1AB4218D053461980FA2381
:1030B0001B01994201D052185680E0BCBA46B14675
:1030C000A846F0BD00251D71104DAC462D68AB42E1
:1030D000C9D39C42CED80E4808F018FC634650462F
:1030E0001860E2E761461D000B60CAE7094808F076
:1030F0000DFC094808F00AFC084808F007FCC04627
:10310000D4C60020D8C6002094020110102D002043
:10311000C8020110500201106C0201102C020110B3
:10312000F8B5CE464746384ACB1C80B513400B2B2A
:103130003FD9FA22120193423ED899423CD8334AF1
:103140001668864256D8324A1268824252D9040022
:10315000083C2588A11B2A0089B2083A521A92B26B
:103160009A424AD321D07719BC463F79002F25D106
:10317000FA221201954243D062461288254D9146AB
:103180000A0008329B182F689BB2F21867452FD0AF
:10319000002515714D4651801580FA212380128833
:1031A00009018A4201D0B2185380C0BCB946B0466A
:1031B000F8BD0C239942C2D90020F6E71F0014374E
:1031C000BFB2BA42F1D30A0008329B18FA229BB26E
:1031D00098461201954213D00E4FF2183B68934265
:1031E00000D93A6000274346177115805180D4E713
:1031F0002A60CDE7084808F089FB084808F086FBFC
:10320000074808F083FBC046FCFF0000D4C600203E
:10321000D8C60020102D0020E4020110FC0201108D
:103220001C030110F8B5DE4657464E464546E0B54C
:1032300000282ED03D4BC61C1E40B3460B2E2FD966
:10324000FA231B019E4224D8584522D8384BFA272E
:103250009A461B6859469946364B3F0118684B46BB
:103260001B1A9AB21B041B0C7F1ABB4211D20821F5
:1032700049428846C41894462579C25A1900130059
:10328000002D04D14646711A891859450BD2974230
:10329000F0D80020F0BCBB46B246A946A046F8BD17
:1032A0000C239B46D0E75B461433994211D201238D
:1032B0005E4623710836204B1968A14520D0A61917
:1032C000B1422CD320000830A407E3D01B4808F0FB
:1032D0001DFB5E466346FA2708369B199BB23F01E9
:1032E000BB421FD0C1180A8062464A8001220D717C
:1032F000238022710A88BA42DDD082185380DAE72F
:10330000230004E01B88C3181A79002A04D08B42DA
:10331000F8D153461960D2E752461360CFE7084808
:1033200008F0F4FA074808F0F1FAC046FCFF000084
:10333000102D0020D4C60020D8C600206003011044
:10334000300301101C03011024230022F0B547466E
:10335000CE4690469946033204249446124E80B5D8
:10336000124B134FB1444146326839606146033312
:103370008B43002C0BD015880021002200E00300B5
:103380000132196058191900A242F8DB3B6004367B
:10339000B14504D03268976853685488E3E7C0BCED
:1033A000B946B046F0BDC0461814011050BE00200A
:1033B00078C6002010B5082812D80C4B8000C458DD
:1033C000FDF71CF8A3681C68002C07D022681A605F
:1033D000A30707D1FDF714F8200010BDFDF710F882
:1033E0000024F9E7024808F091FAC04618140110C9
:1033F000A403011070B50C0008280ED800290CD0C9
:10340000084B8000C5588B0708D1FCF7F7FFAB6865
:103410001A6822601C60FCF7F3FF70BD024808F0D8
:1034200075FAC04618140110C803011070B543683E
:1034300016000A6804000D0082B09A4201D102B061
:1034400070BD3360300001A9019201F0C9F930006C
:1034500001A902F0BFFB01A9300000F031FC3923C3
:1034600029686160E25C343B1340052B05D0E369B9
:10347000002BE4D020009847E1E70029F7D012079D
:10348000F5D52000211D03F0A1FFF0E77047C046ED
:10349000F0B504000D0017001E0083B0002922D0F3
:1034A000002F23D0002E24D02B680022002B15D013
:1034B0003B68A1688B4200D0A3603368E1688B420F
:1034C00003D1002A04D003B0F0BDE360002AFAD192
:1034D0006A4629002000FFF7A9FFF4E76268002A86
:1034E00009D10122E4E7164D002FDBD1144F002E45
:1034F000DAD1134ED8E7684601A90193009201F092
:103500006FF9684601A902F065FB01A9684600F061
:10351000D7FB39232A686260E15C343B0B40052B02
:1035200007D1002A05D0090703D52000211D03F08B
:103530004DFFE369002BD4D0200098470122B7E764
:10354000D416011070B5041E16D04368002B17D195
:1035500039220121A35C194224D11D4B1A68A242D1
:103560002ED01C4A1368A34204D126E01A68A24256
:1035700003D01300002BF9D170BD22681A60FBE75D
:10358000051D0021280001F02BF90021280002F080
:1035900021FB0021280000F093FB39220121A35CCC
:1035A0001942DAD018008843A0541B070BD4E369F2
:1035B000002BD2D020009847CFE723681360DBE7C9
:1035C00000221A60CDE7200003F03CFEEFE7C04682
:1035D00094C6002098C6002070B5041E03D039257B
:1035E000435D5A0700D570BD04221343435503F0D1
:1035F000D5F90523625D1340052B05D0236A002B06
:10360000F1D020009847EEE76368002BF6D0120750
:10361000F4D52000211D03F0D9FEEFE710B50028F6
:103620000AD039220421835C194205D08B4383548C
:10363000036A002B00D0984710BDC046021E0ED072
:10364000084B1868002809D03C2102E000680028D7
:1036500004D0435C0133DBB29342F7D170470020C2
:10366000FCE7C04698C60020F8B5050000260028F3
:1036700026D00F270BE0012B24D0002B2AD12800C5
:10368000FFF7B6FC0136F6B2002C19D02500FCF786
:10369000B5FEAC7B002C1AD0013CE4B2AC73FCF755
:1036A000AFFE002C0CD12B7B2C683B40022BE2D1CF
:1036B000290008200136FFF79DFEF6B2002CE5D167
:1036C0003000F8BD29000720FFF794FEDAE7034831
:1036D00008F01CF9024808F019F9C046E803011087
:1036E0000004011010B5FCF789FE0022084B1A7087
:1036F000FCF786FE074B1868002803D107E0C06876
:10370000002804D0436F002BF9D001F0B3F810BDAE
:1037100019D80020C8D70020F0B5C1234F4646462F
:10372000D6468046C0B50D00170004005B009A42E3
:1037300050D000220C0491460C439F4208D83D0013
:10374000433BFF3B9D43012D24D03B4808F0DEF86E
:10375000A0239B009F42F8D10300032703330335C6
:10376000BB43BD435B199BB21800103080B2AB4223
:103770002ED385422CD8FFF755FD061E16D04B469A
:1037800003604346C3181333BB4343602B4B846031
:10379000C3600BE00720FFF70DFE061E06D04B4668
:1037A00084600360436007734373C5813000E0BCED
:1037B000BA46B146A846F0BDFCF720FE0122204BD8
:1037C0001A70FCF71DFE002E02D03000FFF74CFFF0
:1037D0000026EBE7002398461A4B00269A46002362
:1037E0000327994607E04246ED1AADB21060002D5E
:1037F000DCD0804600240820FFF7DCFD0028DBD069
:103800005246E31CBB43D31A1A1C9BB2AB4200D9ED
:103810002A1C4946041993B2133442810A4ABC4314
:10382000016044600581C260002EDCD1ED1AADB2AA
:103830000600002DDDD1B9E714040110800001005D
:1038400019D80020EC0500008200010070B5041EAC
:1038500033D002898A421BD98A1A07E0C91A238900
:1038600089B29B1823812468002C20D063898B4265
:10387000F4D3227B0D040D43120701D18B4208D1F2
:103880002068A560002801D0FFF7EEFE002323602A
:1038900070BD636820001B1BC91889B2FFF740FC8C
:1038A000002807D08442EBD0054808F02FF80548DF
:1038B00008F02CF8044808F029F8044808F026F825
:1038C0007C04011048040110600401103004011050
:1038D000030070B500281ED080225202914218D2F7
:1038E000002914D002898CB2A21892B2944210D846
:1038F000057B01207F2D0BD95D68691A1D001035ED
:10390000A94205D3596059891A8164185C81002045
:1039100070BD0120FCE7014807F0F8FF9804011092
:1039200010B5002802D0FFF79FFE10BD014807F038
:10393000EDFFC0469804011003000020002B04D0C6
:103940001B68013080B2002BFAD1704710B50C0013
:1039500000281FD000291CD00368002B07D0028943
:1039600021895218028118001B68002BF7D10289A7
:103970004389934211D1228904609B180381FCF78B
:103980003DFDA37B0133A373FCF73AFDA37B002B22
:1039900006D010BD0029FCD0F1E7034807F0B6FFC0
:1039A000024807F0B3FFC046B8040110A404011098
:1039B000F8B54746CE46060080B5884691461F00BA
:1039C000002900D18AE00B89934200D286E00028CA
:1039D00000D183E04B460289FB189A4200DA7DE071
:1039E00000250EE0BA4242D0424612899A4236D0B1
:1039F000002E03D0728933899A4245D04B46002B62
:103A00005FD0434674895B89E41B5B1B9C4200D9F1
:103A10001C004C4500D94C4643467068596822004A
:103A2000C019491909F03EFF4B463F192D197289FB
:103A30001C1BA3B29946BA4253D343465B89AB429F
:103A400052D3CFD143461B689846002B28D0BA42A8
:103A50000CD042465B89128900259A42C8D1434660
:103A60001B68002BC4D0062040422BE0002536689E
:103A7000002E1ED043465A891B899A420AD000273D
:103A8000728933899A42B9D13368002BB6D00620A7
:103A9000404217E043461B68002BE4D10027EFE7C4
:103AA0004B46002B1AD10025BA42A1D10027366817
:103AB0009EE74B46002B11D143465A891B899A42F7
:103AC00004D00020C0BCB946B046F8BD43461868D3
:103AD000431E9841052340429843F3E7102040429B
:103AE000F0E7034807F012FF024807F00FFFC04657
:103AF000E804011000050110F0B5C646050088462F
:103B00001700002600B5002826D0002924D0002F59
:103B100005D121E02D681B1B9BB2002D1CD06C89A8
:103B2000002B01D0A342F5D2E41A221CA4B2BC425D
:103B300000D93A1C94B2424669683F1B9019C918D3
:103B400022003619BFB209F0ADFEB6B22D68002FC3
:103B500002D00023002DE2D1300080BCB846F0BD79
:103B6000F8B5CE46474605008846914680B5002800
:103B700024D0002922D0038993421CD316000027A9
:103B8000002A02D112E0002D1BD06C89B44200D96A
:103B9000340043466868D919220009F083FE361BB9
:103BA0002D683F19002EEED1B9450DD10020C0BCC3
:103BB000B946B046F8BD01204042F8E71020404227
:103BC000F5E7034807F0A2FE024807F09FFEC04653
:103BD0001C05011034050110F0B5D6464F46464687
:103BE00005008A46C0B5002805D146E02D68DB1BDC
:103BF0009BB2002D41D06F89BB42F7D2298998181A
:103C00008146814239DB9F4240D96868C018FB1A5F
:103C10009A422EDD9BB21A005146984609F042FEA8
:103C20004B46DF1BBBB29946002B1CD02F68002FE0
:103C300029D03B894B4520D34E46002401E0002F7C
:103C40001ED07D89B54200D93500434619197868E0
:103C50002A00514409F026FE761B3F686419002EA5
:103C6000EDD1A14515D10020E0BCBA46B146A84629
:103C7000F0BD514609F016FEF5E701204042F3E79A
:103C8000054807F043FE10204042EDE7034807F0E7
:103C90003DFE034807F03AFE1C0501104C050110DB
:103CA0003405011005E043898B4205D8C91A006824
:103CB00089B20028F7D1704743685A54FBE7C046E1
:103CC00010B5002811D00268002A0ED000290CD0AF
:103CD0000B68002B09D0094B1B68002B05D01C6812
:103CE000944203D0DB68002BF9D110BD0A681A603A
:103CF000DB68002BF9D00268F1E7C04698D60020B7
:103D00007047C04610B5041E20D0037D042B03D09D
:103D1000072B0AD0032B11D1200000F0E5FF05236B
:103D2000002807D0431C0BD010BD00F0DDFF002899
:103D3000F8D109232000237501F04AF90020F3E7A8
:103D40000822638B002013436383EDE7014807F0EB
:103D5000DDFDC0466405011070B50600806F0028C7
:103D600003D0FFF7DDFD0023B367746F002C18D07C
:103D70006068256800280CD0FFF7D2FD21000420E0
:103D8000FFF738FB002D0AD02C006068256800285A
:103D9000F2D121000420FFF72DFB002DF4D10023E8
:103DA00073670123F46E5B423386002C16D0606883
:103DB000256800280CD0FFF7B3FD21000420FFF791
:103DC00019FB002D0AD02C00606825680028F2D16C
:103DD00021000420FFF70EFB002DF4D1346F002CDE
:103DE00016D06068256800280CD0FFF799FD2100E7
:103DF0000420FFF7FFFA002D0AD02C006068256828
:103E00000028F2D121000420FFF7F4FA002DF4D1AC
:103E100000236822F3663367B35270BD10B5FCF718
:103E20009FFE044A80049446034B800C6044188033
:103E300010BDC04600C0FFFF1C100020F8B50028D0
:103E40001DD0037D012B34D0048D1D4A61188BB227
:103E500093421BD91300466A458E1A4FC46A0385E4
:103E6000B218291CBD420BD889B20919511A11D5B3
:103E7000A41B1BD480235B029C421DD24485F8BD49
:103E8000391C89B20919511AF2D403E09C42E1D8D5
:103E90001A00E0E743850C4B121B9A42EFD902222D
:103EA000438B1343438301F093F8E8E700234385F2
:103EB000E5E7064807F02AFD054807F027FDC0465C
:103EC000A02D0000D0160000670B0000C4050110F3
:103ED000A8050110C14BF0B54E469946DE4657463F
:103EE00045464A46E0B51B6889B001331360BC4AB9
:103EF0001378059201331370BA4B0793BA4B0693AC
:103F0000079B1C68002C00D1C7E000239B4649E0BA
:103F1000012290460B2B00D8E8E0062D00D10FE1DE
:103F2000637A1B0758D5042D00D0EEE14B461F687D
:103F3000236AFA21FF1A9423E35849009A469823EA
:103F4000E6580433E0587043504409F0E1F88742E2
:103F500000D8C3E143460133DBB298460123666FC4
:103F60009A46002E00D1AAE14023E25E53009B183E
:103F70005B00BB4241D9257D032D5AD0092D00D1CC
:103F8000FDE04346002B00D099E1237F627F01339F
:103F9000DBB2E56823779A4200D804E1A3462C00FF
:103FA000002C7AD0257D002D00D1EDE1012D00D12E
:103FB000E7E10A2D00D1E1E1059BA27F1B789A423F
:103FC00000D107E1A3774223E35C022DA0D1052BAA
:103FD00000D88BE001239846666F002E00D17AE16D
:103FE0004B461F68236AFF1A00239A464023E25E6D
:103FF00053009B185B00BB42BDD870683568002831
:104000000CD0FFF78DFC31000420FFF7F3F9002DF1
:104010000AD02E00706835680028F2D131000420E3
:10402000FFF7E8F9002DF4D10023257D6367032D08
:10403000A4D14B46226A1B689B1A282B00D8A5E006
:104040009023E6582000FFF787FE5A46079B1B681F
:10405000002A00D16DE19C4200D19EE1E368D3606B
:104060005346002B00D054E1237D2569E768012BDE
:1040700000D18FE121000220FFF7BCF90023069C4C
:104080002370002E07D00D2128004942B047237825
:10409000002B00D034E73C1E84D1544E00243168FC
:1040A0004D46002904D11AE00C00C968002916D039
:1040B0000B7D0A2B00D06AE12B680A6A9B1AF02B51
:1040C000F2D93368002C00D140E1994200D167E178
:1040D000CF68E7600220FFF78DF9391EE8D109B0FB
:1040E000F0BCBB46B246A946A046F0BDA123E35CA6
:1040F0009846002B00D17DE0236F002B00D058E1C3
:10410000E36E002B00D157E1A223E35C0B2B00D917
:104110000CE14246A021364BD25C635C934200D254
:104120000DE16023E15A002919D1200001F0FAF9CC
:1041300000281AD0257D00239846062D00D0EFE6F2
:10414000638BDB0600D5A9E0637A1B0700D543E744
:10415000666F002E00D043E700239A4611E7200047
:1041600000F0E8FC002800D101E1A0230022E25485
:10417000A132A35C062BDDD80133A354DAE74B460A
:10418000226A1B689B1AF02B00D959E74346002B83
:1041900000D055E7237F627F0133DBB2E5682377E8
:1041A0009A4200D9FAE60023069A237713708C33DB
:1041B000E358002B0AD0210020699847069B1B7802
:1041C000002B00D09CE6002800D0E7E6200000F09D
:1041D000FFFEE3E6A346E468E2E6C046D8D7002047
:1041E0001DD80020C8D700201BD80020DCD7002015
:1041F000A71401103023E25E7149238E8B4202D84E
:1042000001331AB222864023E35E934200DD84E646
:10421000200000F0F5FD257D002807D0236F002B3E
:1042200000D07AE6E36E002B00D176E6022D16D0A0
:104230003C22A35E3E21625EDB109B184222A15C01
:1042400060480A1C0C2900D987E0D2B2825C9340F6
:1042500080221202934200DB7DE04022A352002321
:10426000482023866033E15A255A628E0B1CA942EE
:1042700000D92B1C9BB250005B0885B2191CAB42C5
:1042800000D2011C4A23E152023BE25200222233B7
:104290002000E25201F0C6F8257D3EE64B461F683D
:1042A000236AFF1A282F00D852E743460133DBB2B6
:1042B00098460023666F9A46002E00D054E690235D
:1042C000E658002D00D1C0E60A2D00D1BDE6012D33
:1042D00000D0B7E6B9E600239A464CE6A323E35C98
:1042E000FA215E4330004900504408F011FF874234
:1042F00000D82DE7200001F0A7F8002800D06BE6D9
:10430000A322A35C0133A35466E6072D00D10DE67A
:1043100062E6238B626A216D0293E38A2000019397
:10432000231D0093230000F0B9FD9DE6012398466C
:10433000F3E59C4237D1E368079A136090E60133B6
:10434000DBB26354934200D2F5E6EAE699422DD1FE
:10435000CF683760BEE61C4B7FE70C22D2B2825C8E
:10436000934080221202934200DA76E7F3E72000BE
:1043700000F02EFE002800D0F7E6DBE6134807F039
:10438000C5FA134807F0C2FA124807F0BFFA1248FC
:1043900007F0BCFA114807F0B9FA114807F0B6FA6D
:1043A000104807F0B3FA104807F0B0FA0F4807F0CA
:1043B000ADFA0F4807F0AAFA0E4807F0A7FAC04670
:1043C000FE7F0000B0140110FF7F000044060110C2
:1043D00018060110EC0501103407011070050110DA
:1043E000DC06011064070110080701108C0701109A
:1043F00070060110A406011010B5041E08D0406814
:10440000002801D0FFF78CFA21000420FEF7F2FF0C
:1044100010BDC04610B50C1E47D0002848D0036818
:104420008B4204D12FE0DA68A24224D01300002B83
:10443000F9D10023E360237D002B0FD1638BDA07D2
:1044400029D4E36E002B36D1236F002B36D1636F56
:10445000002B36D100232375E38210BD0A2BF0D048
:10446000012BF7D02000FFF777FC237D0A2BE8D043
:10447000012BEFD0E2E7E268DA600023E360237DFE
:10448000002BEBD1DAE7CB6803600023E360237DE8
:10449000002BE3D1D2E7022213436383200000F014
:1044A00097FD237D012BD5D0CBE7074807F02EFAE7
:1044B000064807F02BFA064807F028FA054807F0E7
:1044C00025FA054807F022FAB4070110D0070110B9
:1044D000F00701100808011024080110F0B54E463D
:1044E0004546DE465746E0B505000E0087B0002879
:1044F00076D0037D012B00D1B0E00A2B00D19BE0E8
:10450000026D9246426A0592902282589346026951
:104510009146C28A9046002B69D1002A6FD10023B0
:10452000002698462C6F002C16D06068276800285B
:104530000CD0FFF7F5F921000420FEF75BFF002FF8
:104540000AD03C00606827680028F2D121000420CE
:10455000FEF750FF002FF4D1EC6E002C16D06068EF
:10456000276800280CD0FFF7DBF921000420FEF7B4
:1045700041FF002F0AD03C00606827680028F2D174
:1045800021000420FEF736FF002FF4D16C6F002CC1
:1045900016D06068276800280CD0FFF7C1F9210009
:1045A0000420FEF727FF002F0AD03C006068276830
:1045B0000028F2D121000420FEF71CFF002FF4D1C7
:1045C000002E2CD12B7D012B45D029000220FEF797
:1045D00011FF5B46002B03D00D2148464942D847C6
:1045E00007B0F0BCBB46B246A946A046F0BD2900C4
:1045F0001C48FFF70FFF01221B4B1A7092E71B4A62
:104600001368834208D1C36813600023EB6086E718
:10461000DA68AA421CD01300002BF9D1F5E72B8BE6
:1046200051460293434601932B1D009328002B0013
:10463000059A00F033FCC5E729000D48FFF7EAFEB4
:104640002B7D012B07D029000220FEF7D3FEC7E700
:10465000EA68DA60D9E7074807F058F9064807F032
:1046600055F9C046C8D700201BD80020CCD7002061
:10467000DCD70020700501103C080110F8B5041EBD
:1046800032D00023866F777B83678433C558002D33
:104690000CD00023320021000069A84700280BD06D
:1046A0000D301ED00520A6674042F8BD3189FFF7C6
:1046B000C5FB3000FFF734F9BF0610D5238D0C4A37
:1046C000934201D0013323858423E558002D06D081
:1046D0000023002221002069A8470D3001D00020CE
:1046E000E3E70D204042E0E710204042DDE7C0460E
:1046F000A02D0000F0B54F464646D646C0B5204D29
:10470000204F2B7801332B701F4B9946012398467D
:104710004B461C68002C1BD008262B78A27F9A429F
:104720001BD04246A377638B1A421ED11E4216D17C
:10473000E3689A46A36F002B07D0002320003B704C
:10474000FFF79CFF3B78002BE2D15446002CE4D1CC
:10475000E0BCBA46B146A846F0BDE468F6E7B3430C
:1047600020006383FFF7CEFAE2E70222134363835C
:10477000200000F02DFC0322638B93436383D5E775
:104780001DD800201BD80020C8D7002010B5FFF787
:10479000B1FF054A13780133DBB21370DB0700D495
:1047A00010BDFFF797FBFBE71CD8002010B5002ACF
:1047B00010D000290DD00A8E002A0AD0131C282AF6
:1047C00000D22823283B1A1C9BB2834200D9021C2A
:1047D00090B210BD014807F099F8C046700801106A
:1047E00070B505000E00002802D00368002B00D130
:1047F00070BD1D4A1068002804D10CE0002C0AD0BE
:1048000020002B680268C4689342F7D10121FFF7AA
:1048100065FE002CF4D1154B1C68002C0AD02268D0
:104820002B682000E4689A42F7D10121FFF756FE79
:10483000002CF4D1002EDBD03368002BD8D00C4BE9
:104840001A68002AD4D02B681168994205D0D26822
:10485000002ACDD011689942F9D133681360D2682B
:10486000002AF0D1C4E7C046C8D70020CCD700202A
:10487000D4D7002070B5446F0600002C18D06068B3
:10488000256800280CD0FFF74BF821000420FEF724
:10489000B1FD002D0AD02C00606825680028F2D1F7
:1048A00021000420FEF7A6FD002DF4D1002373673C
:1048B00070BDC046F0B54F464646D646C0B599468F
:1048C00008AB80460E0092461F7800285FD0002972
:1048D0005AD00425BB0004201D40FEF76BFD041ECA
:1048E0004DD000238772036046603389AB4251D3B9
:1048F0005B1B038114213000FEF7EAFF061E34D152
:104900006368AD025F684346E760D88AFEF742F805
:1049100043463870000A7870188BE768FEF73AF85B
:10492000B870000AF8704846E768FEF737F8030EDB
:10493000FB71E368020A9846A023DB0138717A71A3
:10494000020CE818534603431800BA71FEF722F828
:1049500043461873000A5873E3689E74DE7420009F
:10496000E0BCBA46B146A846F0BD8C210B4B2000F6
:104970005A5A002401325A52FFF73EFDEFE7300049
:10498000FEF7CEFF0024EAE7054806F0BFFF054822
:1049900006F0BCFF044806F0B9FFC046182D002001
:1049A000B808011098080110DC080110F0B547465E
:1049B000CE4680B505000C0090461E0085B000294B
:1049C0004DD0002838D0007A00282BD1180002F0F2
:1049D00049FF071E2AD0636822899946062143466B
:1049E00020000096FEF7D8FA4B461874000A587457
:1049F000EB7AAD7A78211B48425A013242520622A4
:104A000000950192414632002000029702F068FFB3
:104A100005002000FEF784FF280005B0C0BCB946A1
:104A2000B046F0BDFEF70AFE071ED4D104252000D3
:104A3000FEF776FF6D42EFE7180002F013FF071E46
:104A4000F4D0656843462289062120000096FEF7CF
:104A5000A3FA2874000A6874FF230025CAE70248F5
:104A600006F054FF182D002008090110F8B54E4635
:104A70004546DE465746E0B50500160000284DD0F5
:104A8000A022436A14319846C38A89B29A46038B9E
:104A900092009946438D22209B46FEF73DFE071E5D
:104AA00035D04389132B3CD944685046FDF772FF3B
:104AB0002070000A60704846FDF76CFF330AA07052
:104AC0002671000A6371330C360EE070A371404604
:104AD000E671FDF763FF030A20726372030C000E98
:104AE000A372E0721048FDF755FF2073000A60734F
:104AF0005846FDF74FFF0023A073000A2374637428
:104B0000A374E374E0736A8D6B6A9B18EB623800E0
:104B1000F0BCBB46B246A946A046F8BD034806F025
:104B2000F5FE034806F0F2FE1050000034090110B3
:104B30005C090110F0B54E46DE4657464546E0B5E5
:104B40000C00060083B0002800D1BFE0C56E002D28
:104B500000D1AFE0002900D1B5E02B899A468B4205
:104B600000D88EE0438E8B4200D2B2E00422AB7AB2
:104B700036209B469B001A4053465F1ABFB2D1199C
:104B80009146A02289B29200FEF7C6FD8046002819
:104B900000D192E068682A8903899B1A42465168CD
:104BA000E3183A009BB24944FEF7A6FFB84200D092
:104BB00078E0EB68587B1A7B00021043FDF7EAFEB1
:104BC00008230700C2B21F40184262D13733134096
:104BD00099460122012349460B4202D09943894656
:104BE0001700E9684A790B7912021A438B79C87960
:104BF0001B04134300061843FDF7D0FE5A46231842
:104C0000009241463A003000FFF754FE071E54D090
:104C10006868FEF791FE662398464246F35A1B1ACF
:104C2000B35253466868E41A0189A4B2611889B284
:104C3000FEF70CFE2B894846E418EB682C811C7BA0
:104C40005B7B1B021C43FDF7A5FE2043E96882B293
:104C5000120A08734A736868FEF76EFE4346F35AF9
:104C6000C0184346F0527868FEF766FE4346F35A92
:104C7000C0184346F0522B683B602F603B68002B06
:104C80000DD0002003B0F0BCBB46B246A946A046FA
:104C9000F0BD372313409946092208279AE7682276
:104CA000B352EEE784210C4B40465A5A01325A5215
:104CB000FEF736FE01204042E4E78421064B5A5AB3
:104CC00001325A52F6E7054806F020FE044806F085
:104CD0001DFE044806F01AFE182D0020B009011030
:104CE0008C090110D409011070B5040082B00028AD
:104CF00000D171E0C36E002B0CD01D001B68002B8F
:104D0000FBD1EB68587B1A7B00021043FDF742FE93
:104D1000400740D0A022002136209200FEF7FCFC84
:104D2000011E4BD00022E36D200000920132FFF7FC
:104D3000C1FD002842D0C3689B0750D10389002BD6
:104D400050D1E36E002B24D01A001B68002BFBD13E
:104D5000106068230022E2522022E36D4068013394
:104D6000E365638B13436383FEF7E6FD6623E25A34
:104D7000801880B2E052002802D1002002B070BD3D
:104D8000236F002BF9D1E36E002BF6D1174806F004
:104D9000BDFDE066DDE7EB68587B1E7B0002064345
:104DA0000120FDF7F7FD3043EA6883B21B0A107358
:104DB00053732022638B13436383DEE78022638B6C
:104DC00084211343638384230120094A4042D35A38
:104DD00001339BB25352D1E7064806F097FD0648CF
:104DE00006F094FD054806F091FDC046440A011006
:104DF000182D0020E4090110000A0110180A011002
:104E0000F0B5C646050000B5002841D0026F002A63
:104E100039D01400636826689B7B002E07D0012BD5
:104E200031D13400636826689B7B002EF7D1012BBB
:104E300029D1EB6EE16823608023EA666A8B1B014F
:104E400013432E676B834A790B7912021A438B79CD
:104E5000C8791B04134300061843FDF79FFD2389FF
:104E600007009846E3684744587B1A7B00021043CA
:104E7000FDF790FD032303405A1E9341DB190020E8
:104E8000EB646E6301E00620404280BCB846F0BD92
:104E9000014806F03BFDC0466C0A0110F0B55746CC
:104EA000DE464E464546E0B583B01F000CAB90464B
:104EB00004CB01901B8808009B460EAB1B889146D3
:104EC0009A46002F4BD0002A4CD0FDF767FDA02258
:104ED0000500142122209200FEF71EFC061E37D08A
:104EE0004389132B41D944685846FDF753FD207080
:104EF000000A60705046FDF74DFD2B0AA070257129
:104F0000000A63712B0C2D0EE070A3714046E57111
:104F1000FDF744FD030A20726372030C000EA372B6
:104F2000E0721348FDF736FD2073000A60731148E4
:104F3000FDF730FD0023A073000AE073237463744F
:104F4000A374E3743A004B4631000198FFF72EFD3D
:104F500003B0F0BCBB46B246A946A046F0BD064829
:104F600006F0D4FC054806F0D1FC054806F0CEFC5E
:104F7000145000002DA00000900A0110AC0A01108E
:104F80005C09011010B5041E1DD0006DFDF706FD73
:104F9000002102002000FFF769FD011E0DD0220054
:104FA000231D2000FFF702FD0322638B002802D19E
:104FB0009343638310BD1343FBE703220220638BFB
:104FC00040421343F5E7014806F0A0FCC80A01106F
:104FD000F0B5DE4657464E464546E0B5040089B07A
:104FE000002800D113E2037D012B00D10CE2D04B4D
:104FF0001B6883423ED04823C56EC65A1833C75A31
:10500000002D30D0031D007A9846002800D0DFE143
:10501000180002F027FC81464B46002B00D1EAE144
:105020002368002B02D14B465B682360331CBE42D1
:1050300000D93B1CE9689FB24A790B7912021A43E6
:105040008B79C8791B04134300061843FDF7A6FCAF
:105050002B89626C9B1A1B18BB4213D96023E35A3D
:10506000BB4200D12CE1638B9A0700D524E180225A
:1050700093436383002009B0F0BCBB46B246A94607
:10508000A046F0BDA1230022E254236F002B00D1E3
:1050900026E11A001B68002BFBD19246A54B069314
:1050A000A54B07934346B846059309E0002E00D070
:1050B000DBE02800FFF7A0F9E56E002D00D195E1B7
:1050C000E9684A790B7912021A438B79C8791B0473
:1050D000134300061843FDF761FC636CC01A2B896B
:1050E000C018404500D979E1EB68587B1A7B000273
:1050F0001043FDF74FFC400700D57FE1236F002BE5
:105100000BD04422638B1A4207D1E26E002A00D1F1
:105110001BE11168002900D112E1237DEE68022B0A
:105120000CD0737B377B1B0210201F43FDF732FC32
:105130003843EE6883B21B0A307373736B689F7BCE
:10514000012F5ED1606AFDF729FC030A3072737289
:10515000030C000EB372F072608DEE68FDF71AFC5E
:10516000B073000AF073628D636AEE689B18E362A5
:10517000AB7A1F4200D0B9E014239B46B3443022DF
:10518000A35E002B01DA00232386636B002B00D182
:10519000BCE0686843684289F31A9BB2D21A428124
:1051A00002894660D21A002392B20281337473746A
:1051B000A97A01330B400321013B8B431833F318C9
:1051C0009B4500D01DE1059F230006210097FDF7B8
:1051D000E3FE782230740699000A70748B5A68686E
:1051E00001338B524A46E37A029206220192A27A56
:1051F000210000923A0002F073FB002800D0F0E09A
:10520000EE682B68E366237D022B03D00322638BB9
:10521000934363837279337912021A43B379F07935
:105220001B04134300061843FDF7B8FB2B89060047
:105230009B46EB685E44587B1A7B00021043FDF7E7
:10524000A9FB032303405A1E93419E19236D9B1B08
:1052500000D52665EB682E89587B1A7B0002104327
:10526000FDF798FB800700D120E700232B60236F18
:10527000002B38D0E9684A790B7912021A438B79EE
:10528000C8791B04134300061843FDF787FB5346F8
:10529000D96806004A790B7912021A438B79C879CA
:1052A0001B04134300061843FDF778FB361A60D43D
:1052B0005346AA461D60FFE62000FFF763FEDAE6CC
:1052C000236F002B00D0CEE6A133E35C002B00D08F
:1052D000C9E68021A0224900A1520232A354C2E6AD
:1052E00000239A46DAE6AA462567E5E64946059A86
:1052F0001248FFF75BFA81239B041843FDF74EFB2E
:1053000018239B467061B344EE6838E7079B1B681F
:1053100063637279337912021A43B379F0791B040B
:10532000134300061843FDF739FBEE68A06330E72E
:10533000D0D70020182D0020D8D70020B4050000B9
:105340001089618E884200D3E7E66421615A002902
:1053500000D1E2E66621615A1F2900D9DDE6A021CD
:10536000194200D0D9E6002A41D0802293436383BA
:1053700080E670239B46236FA3445F46002B04D135
:1053800022E03F683B68002B26D0D9684A790B7928
:1053900012021A438B79C8791B0413430006184381
:1053A000FDF7FCFAE96806004A790B7912021A4304
:1053B0008B79C8791B04134300061843FDF7EEFAF6
:1053C000361ADED4BB463B682B605B461D6073E635
:1053D000FEF734F981461FE6BB46F5E7E26E638BC4
:1053E000C1E78022638B1343638344E6638B6822A7
:1053F0000021A1523BE6042040423CE6054806F06D
:1054000085FA054806F082FA044806F07FFA044857
:1054100006F07CFA280B0110F4080110000B0110B3
:10542000E80A011010B5002808D04222835CFF2B47
:1054300001D001338354FFF7CBFD10BD014806F0C6
:1054400065FAC046400B0110F8B54546DE465746A2
:105450004E46E0B5051E59D0006D0138FDF79EFAA5
:10546000A0226B6A06009946EB8A14219B462B8B7F
:1054700022209A466B8D92009846FEF74DF9071E42
:1054800041D04389132B44D944685846FDF782FA2A
:105490002070000A60705046FDF77CFA330AA07055
:1054A0002671000A6371330C360EE070A371484612
:1054B000E671FDF773FA030A20726372030C000EA3
:1054C000A372E0721448FDF765FA2073000A607356
:1054D0004046FDF75FFA0023A073000AE0732374CF
:1054E0006374A374E3746A8D6B6A39009B18EB6272
:1054F0002A0028002B1DFFF759FAF0BCBB46B24624
:10550000A946A046F8BD01204042F6E7034806F050
:10551000FDF9034806F0FAF910500000640B011081
:105520005C090110F0B5C646040000B5002800D1A2
:1055300079E0C56E002D00D170E0A222835CFF2BC4
:1055400001D001338354EB68587B1A7B000210436F
:10555000FDF720FAC00736D4E96820004A790B79B4
:1055600012021A438B791B041343CA7901211206D4
:105570001A43FFF77BFA061E52D077683900686835
:105580002A89038914319B1A9BB20122FEF7B4FACF
:10559000E9684A790B7912021A438B79C8791B049E
:1055A000134300061843FDF7F9F9236D01301B1A68
:1055B00000D52065220031002000231DFFF7F6F9F9
:1055C00080BCB846F0BD2B89E96898464A790B79CA
:1055D00012021A438B7920001B041343CA794146F7
:1055E00012061A434B1E994189B2FFF73FFA061E75
:1055F00016D043464768002BC0D17B7B3A7B1B0209
:1056000013430A4A112013409846FDF7C3F9434655
:10561000184383B21B0A38737B73B9E70020CFE7C6
:1056200001204042CCE7024806F070F9FFC0FFFFBE
:10563000800B011070B5050043689847FAF7E2FE49
:105640001E4B2A681C681419231ADE0F002B1ADA65
:1056500014180620FDF7AEFE00282BD000231849B1
:105660000360184BC56083600B684460002B04D155
:1056700007E019001B68002B02D05A68A21AF8D55F
:105680000360086070BD0620FDF794FE002811D06D
:105690000C4B0B4983600B680660C5604460002BAF
:1056A00004D1EEE719001B68002BE9D05A68A21A52
:1056B000F8D5E5E7044806F029F9C046101A00209D
:1056C000A0C6002035560010A40B0110F8B5282301
:1056D000CE46994680234746DB059846194D80B54E
:1056E000194E1A4FA9442C68444525D2FAF78AFE70
:1056F00024180620FDF75EFE002820D0002303605A
:1057000033688760C5604460002B03D05A68A21AD2
:105710000BD50360306008354D45E4D1C0BCB946B7
:10572000B046F8BD5A68A21A03D419001B68002BB2
:10573000F8D103600860EEE7054806F0E7F8054891
:1057400006F0E4F8C8140110A0C600203556001079
:10575000E40B0110A40B0110F8B5CE46474680B506
:10576000FAF750FE134E0500134C144F12E0216857
:10577000002917D04B68EA1A14D40A680620226060
:105780008A683B609046CA689146FDF733FE4346FF
:10579000002B0BD13378002BE9D0FDF7A3FF216854
:1057A0000029E7D1C0BCB946B046F8BD4846C0475D
:1057B000F0E7C04619D80020A0C60020101A00202B
:1057C00010B5084C2368002B08D0FAF71BFE23689D
:1057D0005B68181AC30F013B184010BD01204042FE
:1057E000FBE7C046A0C6002010B5FBF7B9F9044A94
:1057F00080049446034B800C6044188010BDC04662
:1058000000C0FFFF1E100020F0B5CE46474680B511
:10581000002900D16BE0002800D173E03C4E3568D0
:10582000002D39D02B00A84202D13DE098423BD058
:10583000DB68002BFAD19C46002A39D00C682B007B
:10584000002C03D11FE0DB68002B0FD09842FAD068
:10585000598A9142F7D11968A14201D00029F2D1A9
:105860000820404208E043460C681A806346046002
:105870004282002B15D00020C0BCB946B046F0BD16
:10588000DB68002BF2D09842FAD0598A9142E7D0D7
:10589000DB68002BF7D1E9E7002A30D00B684282A1
:1058A0000360C5603060E6E701239C46002AC5D14D
:1058B000184B98461A88184B9A421AD0013292B265
:1058C000002DD0D0144B80279946FF012B0002E019
:1058D000DB68002BC7D05C8A9442F9D1013FBFB28C
:1058E000002F12D04A4507D0013292B2EEE70B49A1
:1058F00091E7C0221202E3E7C0221202E6E700238A
:105900009C46D5E710204042B6E743461A80A7E7F9
:10591000E8D700201E100020FFFF0000D416011061
:10592000F0B5CE46474680B504000E009046994635
:1059300085B0002800D17AE0002900D177E0002A64
:1059400000D174E00D9B002B00D170E00C9B002B6C
:1059500000D16CE0438A002B44D03289384B9A4204
:1059600000D967E008213000FDF7B2FF37000028BA
:105970003FD17B89072B60D9608A7D68FDF70AF8E3
:105980002870000A68704846FDF704F80023A870E4
:10599000000AAB71EB71E8703889FCF7FBFF2871E6
:1059A000000A6871237CDB0732D50C9AE37A0292F5
:1059B00011220192A27A380000920D99424602F01B
:1059C00057F80500B74202D03800FDF7A9FF602163
:1059D0001C4B5A5A01325A52280005B0C0BCB94675
:1059E000B046F0BD00220100FFF70EFF051EB4D047
:1059F000F2E7A022082122209200FDF78DFE071E6B
:105A000018D03389002BB4D03100FDF79FFFB0E7E9
:105A100043463A891121009338000D9BFDF7BCFAEB
:105A2000002800D10848A871000AE871BDE71025D8
:105A30006D42D1E701256D42CEE7044805F066FFCF
:105A4000F7FF0000182D0020FFFF00001C0C0110C4
:105A500070B582B0069D002818D0002916D0002A03
:105A600014D0002D12D00468002C06D12C1D0194F6
:105A70000095FFF755FF02B070BDF0262640E02EDE
:105A8000F4D06E68B44204D10400F0E71020404224
:105A9000F1E704204042EEE7F0B504000E001500E7
:105AA0001F0083B0002825D0002923D0002A21D050
:105AB000007A002819D1100001F0D4FE00281CD073
:105AC0002368002B14D0F0221A40E02A10D042683C
:105AD000934217D12300019300903B002A0031002C
